:0200000056297F
:10000800FF00030E8301A3000A08A4008A018B1CC9
:100018000F288B10A00A24088A00230E8300FF0EE5
:040028007F0E09003E
:10002C002828831203132F08850052282F088600D6
:10003C0052282F08870052282F08880052282F0892
:10004C00890052288312031300302E06031D30281A
:10005C0000302D060319172800302E06031D3828F2
:10006C0001302D0603191C2800302E06031D4028D4
:10007C0002302D0603191F2800302E06031D4828B8
:10008C0003302D060319222800302E06031D50289C
:0A009C0004302D0603192528080082
:1000A600803083120313F00080302C067002031D8B
:1000B6005E282B08093C031C81282708AD00280868
:1000C600AE002B08AF002C08B00016202908AD00A2
:1000D6002A08AE002B08AF002C08B00016200B3003
:1000E600FB002630FC005D30FD00FD0B7828FC0B84
:1000F6007828FB0B782800000000EF2880302C06BB
:10010600F00080307002031D8A280A302B02031C7F
:10011600BE288030F00080302C067002031D952822
:100126002B08133C031CBE282708AD002808AE0088
:1001360006302B07AF002C080318013EB00016202E
:100146002908AD002A08AE0006302B07AF002C08A0
:100156000318013EB00016200B30FB002630FC00D1
:100166005D30FD00FD0BB528FC0BB528FB0BB52853
:1001760000000000EF2880302C06F000803070026E
:10018600031DC72814302B02031CEF282708AD00D7
:100196002808AE000C302B07AF002C080318013ED0
:1001A600B00016202908AD002A08AE000C302B0737
:1001B600AF002C080318013EB00016200B30FB00E0
:1001C6002630FC005D30FD00FD0BE728FC0BE72820
:0A01D600FB0BE72800000000080002
:0E01E0008312031322088A00210882000800FF
:1001EE0083120313A601861B48292008013A031D1A
:1001FE0021290330260203181B29861586100611A5
:10020E000613061286160230A7000030A80003302F
:10021E00A9000030AA002608013EAB00AC0103186D
:10022E00AC0A5320A60A00290330A60006130616B0
:10023E008612FC28A6012008023A031D4729033026
:10024E002602031841298611861006150617061276
:10025E0086120230A7000030A8000330A90000303B
:10026E00AA002608013EAB00AC010318AC0A5320CD
:10027E00A60A26290330A600861186140611222905
:06028E00FA28A00108009F
:10029400F0208A110A128000840AA10A0319A20A12
:0802A400F003031D4A290800C4
:1002AC0083120313A001A501063083169F0085015C
:1002BC008130860087018801FF308312850086011A
:1002CC00870188018B170B16831601138113F720F6
:1002DC000130A50025080C3C031C8929F720861544
:1002EC00861006110613061686120230A70000307F
:1002FC00A8000330A9000030AA002508AB00AC010F
:10030C005320A50A70290130A5002508033C031CC5
:10031C00A729F720861586100611061306128616D5
:10032C000230A7000030A8000330A9000030AA005A
:10033C000C302507AB00AC010318AC0A5320A50AFE
:10034C008B290130A5002508143C031CC229F72079
:10035C008611861406110617061286120230A700A3
:10036C000030A8000330A9000030AA002508AB001B
:10037C00AC015320A50AA9290130A5002508033C8E
:10038C00031CE029F72086118610061506170612A5
:10039C0086120230A7000030A8000330A9000030FC
:1003AC00AA0014302507AB00AC010318AC0A53208B
:0803BC00A50AC4296D29E129FD
:02400E004A2F37
:00000001FF
